:020000040800F2
:10000000580900203D4000082B1200083F15000849
:1000100000000000000000000000000000000000E0
:10002000000000000000000000000000CB180008E5
:100030000000000000000000CF1800080740000882
:100040003B220008EF360008DF3F00085F40000851
:100050006140000813400008634000086540000844
:1000600067400008694000086B4000086D400008C8
:100070006F40000871400008734000087540000898
:100080007740000879400008000000007B4000082D
:100090007D4000087F400008814000088340000840
:1000A0008540000887400008894000088B40000810
:1000B0008D400008000000008F400008F0B5A5B09A
:1000C00004000D002A9E00BF73A003C86F4603C73B
:1000D000089506A83B2146540020119004940392F1
:1000E000029313E0039C3500049F21780898B847D9
:1000F0000890002800D1B6E01198401C1190641CB3
:100100006D1EF2D10497039880190390039800782C
:10011000252809D100260B960C960D960E960F9663
:1001200010960021039C0FE06A460021C943039802
:1001300001F030F8060001D1119896E0D2D50126E1
:10014000E1E7080001210143641C20782028F8D051
:1001500023280CD02B2804D02D2805D0302809D0F6
:1001600085E008000221EEE708000421EBE7080023
:100170000821E8E708001021E5E713960AE0139A42
:10018000444B9A4205DA93009A18520010183038FE
:100190001390641C20780200303A0A2AEFD32078AA
:1001A0002E2803D00020C043129028E0641C207841
:1001B0002A280AD102980068029A10600268001D7D
:1001C000029B18601292641C19E02D2802D12D2286
:1001D000641C00E0002212960CE0002A09D1129B58
:1001E0002C4DAB4205DA9D00EB185B001818303837
:1001F0001290641C20780300303B0A2BEDD306AD2F
:1002000029872778390000BF25A000F0D5FF0028F6
:1002100001D0641C00E000273A202F54285C682895
:1002200004D1207868280AD1622005E06C2806D124
:1002300020786C2803D171203A216854641C16A8D8
:100240000A902378029A06A9049800F067F8611CC6
:100250000391002807D116AA06A9049800F0F8F91E
:10026000002800D452E70020C04325B0F0BD2A2862
:1002700083D10298026802601068121D029B1A6006
:100280001390002804D54242139208000421014330
:10029000641C84E7CBCCCC0C000000000000000004
:1002A000686A6C747A4C00000B0062281CD06828C5
:1002B0000DD06A2803D06C2823D0712821D11A6868
:1002C000D21D072082431A6003CA1A607047002AB1
:1002D00019681960086803D0091D196000B217E099
:1002E000091D196080B217E0002A196819600868B2
:1002F00003D0091D196040B20AE0091D1960C0B29F
:100300000AE0002A19681960086803D0091D1960FD
:10031000C1177047091D1960002170477CB50C009A
:1003200011001E0025693200253A00D14AE11C3A2D
:1003300000D182E0121F022A00D87EE00E3A00D1DE
:1003400004E1521F58D0093A77D0921E16D0521E9F
:1003500034D0521E022A70D9121F2FD0521F00D142
:1003600094E0521E48D0521E00D1DEE0D21E00D1D1
:10037000FAE0921E40D0D21E3ED029E13A22A25C81
:100380006C2A09D06069421C62610A680A601368BD
:10039000121D0A602B5425E10A680A601368121DB9
:1003A0000A60009300210191C94321636A4621003C
:1003B00000F0D0F9002800D414E100E101223A2035
:1003C000205CFFF771FF03C4083C002904DA606970
:1003D000411C61612D210DE0208F810704D56069EA
:1003E000411C61612B2105E0C00721D56069411CDA
:1003F0006161202129541BE000223A20205CFFF794
:1004000053FF03C4083C3820205C000710D503CC00
:10041000083C002901D100280AD020203043782848
:1004200006D1606930212954401C411C61612E5461
:1004300060692818E060310084E00868C01D072268
:10044000904308600CC808600CC4083C03CC083C0E
:10045000C80F04D06069411C61612D210DE0208F1F
:10046000810704D56069411C61612B2105E0C0074B
:1004700004D56069411C61612021295460692818F4
:10048000E0603100200000F083FAABE03B20205C0C
:10049000002803D00024E44353A074E03A20205CF9
:1004A000622808D0682823D06A2812D06C282ED061
:1004B00071280ED02BE00A680A601068121D0A60CD
:1004C000002803D10024E4434DA05CE0E16A017000
:1004D00088E0086808600268001D0860002A03D1EF
:1004E0000024E44346A04EE0E06AC11703C279E06D
:1004F0000A680A601068121D0A60002804D10024EE
:10050000E44300BF3EA03EE0E16A01806AE00A6881
:100510000A601068121D0A60002803D10024E44319
:1005200037A030E0E16A01605CE0086808600268BA
:10053000001D08600020C0430021104003C4083C97
:10054000E5607821200000F06BF94BE06C223A2343
:10055000E2540B680B601A681B1D0B60002A29D13E
:100560000024E4432CA00EE03A22A25C6C2AF0D0D6
:10057000086808600568001D0860E560002D06D168
:100580000024E4432BA000F025FE201A76BD266B44
:10059000002E03D5280000F041FE09E032000021C2
:1005A000280000F043FE002801D0401B00E030008E
:1005B000A06117E0210000F0CDF8002812D500203E
:1005C000C04376BD6069411C61612521295409E061
:1005D0006169481C606125226A54310002D0411CC7
:1005E00061612E54002076BD7072696E74665F730F
:1005F0003A20256E20646973616C6C6F77656400C6
:100600007072696E74663A2062616420256E2061A2
:100610007267756D656E74007072696E74665F7373
:100620003A2062616420256C7320617267756D6584
:100630006E7400007072696E74665F733A20626156
:100640006420257320617267756D656E740000000B
:10065000F8B506000C001700606B6169401A216A4A
:10066000401AA169401A616A401AE169401AA16AF8
:10067000401A00903820205C40070ED400980028D3
:100680000BDD05462021A068B047A06000285DD0A2
:10069000E06A401CE0626D1EF4D13A0063692100FB
:1006A000300000F0E9FC002850D1256A002D0ADD59
:1006B0003021A068B047A060002847D0E06A401C05
:1006C000E0626D1EF4D1A369E2682100300000F001
:1006D000D3FC00283AD1656A002D0ADD3021A068DC
:1006E000B047A060002831D0E06A401CE0626D1E77
:1006F000F4D1E369E068A16942182100300000F0FC
:10070000BBFC002822D1A56A002D0ADD3021A0689B
:10071000B047A060002819D0E06A401CE0626D1E5E
:10072000F4D13820205C40070ED5009800280BDD5E
:1007300005462021A068B047A060002806D0E06AE6
:10074000401CE0626D1EF4D10020F2BD0020C043C9
:10075000F2BD0000F0B5A7B004000D0016002F6B2D
:10076000002F00D5874F00F06CFD696B0A1800BFA1
:1007700029A003C804AB03C3812A4AD200200694EF
:10078000009503900024002F32DD04AA316801A8EF
:1007900000F005FD05003CD43068002801D16D1E35
:1007A00037D4AF4224DB00984069401981280BD32D
:1007B0000098446307AA00990698FFF749FF039041
:1007C000002815D4009844610098406902902A00DE
:1007D00001A907A8029BC01800F052FD0298401919
:1007E000009948613068002802D0361D7F1BCAE797
:1007F000069B009C0398002804D107AA210018003A
:10080000FFF726FF002802D100216161616327B054
:10081000F0BD0020C043FAE7000000000000000027
:10082000F2B586B0040025696F2901D1082707E0D9
:10083000084620210143782901D00A2700E010272B
:100840003C2603CC083C04AA03C26A46127E642AF2
:1008500003D06A46127E692A09D1002907DA04A862
:1008600003C800220023121A8B4104A80CC004A85C
:1008700003C8002920D100281ED1206B00281BD1DD
:10088000082F4ED13820205C00074AD53B26302067
:1008900046E000290ED53821615C14220A40102A56
:1008A00008D1616B6269891A226A891A081A0028BC
:1008B00000DD206207B0F0BD0294009504A830C8A6
:1008C000761E0196200029003A00FB1700F0E5FC97
:1008D0003032D0B23A2803DB6846007E5138121815
:1008E00000988255200029003A00FB1700F0D5FC43
:1008F00004000D0001D1002C05D00298C0680099B9
:1009000089198842DCD3029C009D082F09D1382028
:10091000205C000705D5A85D302802D0761E302067
:10092000A8553C20801BA061A919E160216B884279
:10093000AFDA081A2062208F134901402187B9E7F6
:10094000F8B50026114F04000D00009214E0C00716
:1009500007D532003B002000290000F0D3FC040042
:100960000D000098401000903000390032003B002C
:1009700000F0C8FC06000F0000980028E7D1200016
:100980002900F4BDFFFFFF7FEFFF000000002440BF
:10099000F3B593B005AA03C802AB03C314A800784B
:1009A000202101436846017061290BD01398006B28
:1009B000002801D5062003E004D1672902D10120D7
:1009C00013990863139803C84C006415641C13D171
:1009D0000B0311D003201399886114A800786138A3
:1009E0001A2804D255497944FF31533116E054494D
:1009F0007944FF314D3111E04C006415641C13D172
:100A00000B0311D103201399886114A80078613871
:100A10001A281BD34B497944FF312B3103221398F9
:100A2000C06800F02DFCC2E110AB03C38CA6C0CEA1
:100A300010A803C8394080256D03A9420BD20023BA
:100A4000019310AB30CB604069400EE03E497944E1
:100A5000FF310939E2E7080D834C2418019410A8EE
:100A600003C8834D0D4081492943139B03C3684646
:100A70000078612813D11398C06830210170811C5F
:100A8000139BD96014A90978612901D1782100E06C
:100A90005821417013984069801C1399486113983C
:100AA00030C826402F4005D1002E03D100206B46D0
:100AB000188173E168460078612800D0A8E0139897
:100AC000006B002801D5212000E0401C0090009F11
:100AD0007F1C02A803C80022002300F0D5FC02D22C
:100AE0008020000645400198001F019069460A7564
:100AF00005A8461C002F00DC5FE120002900002231
:100B000080235B0300F0D9FC00D956E169004A0D4F
:100B100011001C31002A19D0002917DDB24A914278
:100B200006DB10052900802212061140014311E066
:100B30004F4A2A400805104305000DE0F03400003C
:100B4000F0340000F4340000EC340000290080226E
:100B50001206114000240D002000290000F0C6FC00
:100B60000290FF1F002F09DD00F0FAFC02000B00CD
:100B70002000290000F05BFD04000D00F01D07219E
:100B8000029A04E0401E13071B0F03701211002A83
:100B900001DD491EF6D5491E00D50AE1401E00229E
:100BA0000270F8E70023040005AD2D1901E0401E96
:100BB0006D1E641E2E789E42F9D00F2B04D14B1C63
:100BC0001B5D5B1C491C0B55002C04D505AA401C61
:100BD0000199091D0191431E11D4D41814A9097853
:100BE00025783035EEB23A2E02DB0E003A3EAD19D2
:100BF00025705B1E641E002BF2D514AB197013997F
:100C0000096B002900D4C6E0411E139B1963C2E0A2
:100C100002A830C86D006D080198744948437449B2
:100C200000F092FD019007200199401A029005DD25
:100C3000024620002900FFF783FE0AE0424200201E
:100C40006C49FFF77DFE02000B002000290000F038
:100C5000D5FD6A461278662A0CD1019A0A320AE05A
:100C6000FFFFFFFFFFFFFF7F02FCFFFF0000E03FF1
:100C7000FFFF0F800622139B1B6B9A18142A00DDBE
:100C8000142230236C46237505AB5C1C02E002A8DD
:100C900003C8049A002A3CDD02AB03C3049202A8F5
:100CA00003C800F035FC0F900646083404253000D8
:100CB0000A2100F04CFD0F0030000A2100F047FD32
:100CC00006003037601E077030000A2100F03FFD3B
:100CD0000F0030000A2100F03AFD0600A41E303754
:100CE00027706D1EE3D1083404980838049000285A
:100CF000CDDD0F9800F024FC02000B0002A803C811
:100D000000F095FC00223C4B00F0FCFA02AA03C262
:100D1000C5E705A8401C211A05A8421C019802E05D
:100D2000491E401E521C1378302BF9D001906846A2
:100D30000078662802D10198401C06E068460078D9
:100D4000652801D1012000E00020139B1B6B1818BF
:100D5000814200DA481E00281DD4884204DA115C62
:100D6000352901DB392300E030230400511E0D1921
:100D700001E0401E6D1E641E2E789E42F9D0392B74
:100D800002D1135D5B1C1355002C04D50A00401CD6
:100D90000199491C019169460881019800B20090AF
:100DA000029B1BB214A80178139800F027F815B025
:100DB000F0BDC61D002F00DD9FE605A9481C331AB3
:100DC00005A8421C0098834200DC1800002800D5CA
:100DD00015E7984200DBE5E64B1C1B5C072B00DCAB
:100DE000E0E60F23DFE60000FF0700009775000034
:100DF000A08601000000F03F84D79741F6B583B08C
:100E000006000F001C0000F0CFF9406A0078694628
:100E10000870356B002C03DC012400BFA3A00490F4
:100E200020203843662803D10A9F3FB27F1C1AE076
:100E3000672800D085E00A9800B20321C9438842A0
:100E400000DA82E0A84200DB7FE00A9F3FB27F1C0D
:100E50003820305C000702D4AC4200DA250038B2FA
:100E60002D1A00D50025B169F06840183AB2002A61
:100E700026DC491C30220270002D03DC3820305C57
:100E8000000704D568460078F2685054491CB161E7
:100E900038B241428D4200DA6F423FB2784270620E
:100EA000ED19A54200DA2C0024B2F4612200049965
:100EB000F068B369C01800F0E3F9281BB062C3E022
:100EC000944218DA2200049900F0DAF9B0690019A6
:100ED000B0613FB2391B7162002D03DC3821715CB7
:100EE000090706D569460978F2681154F069401C73
:100EF000F061B562A8E0049900F0C2F938B2B169B6
:100F00000918E41B002D03DC3822B25C120704D55B
:100F10006A461278F3685A54491CB16121B28D4275
:100F200000DA2C0022B204990918F068B369C018DD
:100F300000F0A6F924B2B0690019B061281B7062F4
:100F400082E0612F11D1702712E0AC4204DA38211F
:100F5000715C090700D425006D1E00D50025672FA0
:100F600001D1652704E0452702E0412F00D1502739
:100F7000B069411CB161049A1278F3681A5404985C
:100F8000401C0490002D03DC3820305C000718D58D
:100F9000481CB0616A461278F3685A54002D10DD7F
:100FA000641E21B28D4200DA2C0022B20499F3684B
:100FB000181800F065F924B2B0690019B061281B57
:100FC0007062F068B169401807700A9909B2002987
:100FD00004D42B214170801C049006E02D22427025
:100FE000801C049048426946088500246D460A9892
:100FF00000B205E00A2100F0A7FB2970641C6D1CFB
:1010000000B20028F6DC012C09DC202038436528DA
:1010100005D13020049908700498401C0490002CDD
:1010200028D13020049908700498401C07E0641E01
:101030006946095D30310170401C002CF7DCF16815
:10104000B2698918401AF0613820305C14210140DF
:1010500010290DD17069B1694018716A4018F169A1
:101060004018B16A4018716B884201DA081A306280
:1010700005B0F0BD0498E0E7F8B50024002B13D0CC
:1010800007000E0014001D002178B068B847B0605A
:10109000002807D0F06A401CF062641C6D1EF3D17A
:1010A000002401E00024E4432000F2BD3000F1B44C
:1010B0000168421841684808131800988068C907F9
:1010C0001ED5494640181BE01778521C0770401C7B
:1010D000761EF9D1002C13D01678521C89080D40C9
:1010E000032D01D11578521C290271184D42411966
:1010F000A41C05D00D78491C0570401C641EF9D154
:101100009A420FD01178521C032503260E4002D1BB
:101110001678F61C521C0C090F2CD9D114780F34F8
:10112000521CD5E700980C30F2BC7047204870473D
:1011300030B45368D418042B0BDA002909D0057891
:1011400025700578002D04D05B1C491E641C401CD2
:10115000F1E7536030BC704738B500290ED01D0050
:101160001400FFF7E5FF616820006A6B90470122D9
:10117000D243811A02D0491E02D004E0012000E0CF
:101180000020C04332BD0021616032BD80B5DA6B02
:10119000904702BD80B5064BFFF7DEFF02BD80B56C
:1011A000034BFFF7F3FF02BD024870470000000049
:1011B000440000200C000020C9B202788A4203D00B
:1011C000401C002AF9D1002070470268531C0360BC
:1011D0001170704780B5002801D100BF07A00649F3
:1011E0000B68002B03D022220021984701E000F079
:1011F00066FB222002BD000054050020636F6E7361
:10120000747261696E742068616E646C65723A20F4
:10121000626164206D65737361676500431C0178CA
:10122000401C0942FBD1C01A7047FEE7C9B2521EEA
:1012300005D30378401C8B42F9D1401E7047002033
:10124000704780B5FFF772FF006C02BD70B4103AB2
:1012500003D378C9103A78C0FBD2530701D318C919
:1012600018C001D508C908C0D20704D30B88038071
:10127000891C801C002A01D50B78037070BC704754
:101280008B0701D18307E1D0124205D00B78491CAE
:101290000370401C521EF9D17047124224D099426B
:1012A00028D970B500251B4202D00C00002109E0AE
:1012B0000024012649186441944200D3A41A7641BF
:1012C000F8D33100012601E0764109D200186441CB
:1012D0006D41A41A9D41F7D2A4185D41B619F5D30A
:1012E000300022002B0070BD1B42D8D108B500F0A1
:1012F000EBFA08BD01D19042D3D202000B000021CD
:1013000000207047F0B50E005E400125ED072E402D
:10131000B446AE0ADF184C18F44208D2F7420ED297
:10132000640D01D07F0D12D100206146F0BD05D1C2
:10133000F74201D87F0D05D10020C143F0BDFBD19C
:10134000640DF9D00020C143490549088FE0E41934
:10135000C902DB0229432B43DB0A460DC00231439D
:101360008E4630B487B295B27D432E0CADB2140CCC
:101370007C43A419260C240425439CB27C43A41965
:10138000190C7943270CC919A4B20F043C43090C6A
:10139000000C97B247432E0CBE193543ADB2170C63
:1013A0004743360CBF19A6B2BF193E043543240C7F
:1013B0003E0C36199FB24743BF19BCB23E0C891987
:1013C0001F0C47437F183E043443390C704680B2EB
:1013D00097B247432E0CBE193543ADB2170C4743A5
:1013E000360CBF19A6B2BF193E043543240C3E0C7F
:1013F00036199FB24743BF19BCB23E0C89191F0C66
:1014000047437F183E043443390C77463F0C90B273
:1014100078432E0C80190604ADB22E43050CA0B201
:101420002D18120C7A435019020C80B2240CA41807
:101430009AB27A43121914042043120C89181B0C17
:101440007B43C91830BCEF0A394203D1B619404179
:101450004941641E6F12BF0DE41B0BDBFF19BC4238
:1014600011DA240500274208AE4178416141664601
:101470003143F0BD641C05D1401C6141CF0201D352
:101480004908F4E750E75DE730B4012464054D00F6
:10149000EC420BD85D00EC4208D80C001C43640001
:1014A0000443144304D2994200D1904230BC7047A7
:1014B000FCD08B42FAD18242F8E730B401246405B3
:1014C0004D00EC420BD85D00EC4208D80C001C43E8
:1014D00064000443144304D28B4200D1824230BCE6
:1014E0007047FCD09942FAD19042F8E7F4464A1886
:1014F00005D200F00FF801D580174008604700F0D2
:1015000009F80121C907884200D908004042604714
:101510004A1812D2400DC90208430121C9070843E5
:10152000520D40210901521A521C06D452421F3258
:1015300001D4D0407047C017704700207047FEE7C5
:10154000010042221201D21E004207D002D4521ED4
:101550000018FCD5C10A4005120589187047000023
:101560000100EED54042F446FFF7EBFF0122D2071F
:10157000114360478B4200D1824205D98446100056
:1015800062468C4619006346DF184C18640D7F0DC7
:101590003AD0661C760537D0E61B352E34DCDB02EC
:1015A0002B43DB0A0C0DC9022943C912202E0DDB87
:1015B0001700203E06D01F00F741F3405F40002691
:1015C000012A7741C01871410DD217E01700F74189
:1015D000F2405740F3415A40B340F3405A4000268E
:1015E000801859410AD3A21C52050FD0C207012FFF
:1015F000724117004008CB0718434908641C2405B2
:101600004208AF4170416141F0BC7047641C210544
:101610000020F9E76B4010E06B40ABE7F742F3D1F5
:10162000E943F1E72442EFD100200021ECE7F0B4D8
:101630000125ED070F005F40EED40C00871A9C4196
:1016400005D2C01BA141D219634169406B40AE0A6B
:10165000DF184C18F442E1D2640D7F0DE2D0E61B96
:10166000362ED1DCDB022B43DB0AA4460C0DC9026B
:101670002943C90A012E28DC04D1D6075208DF0706
:101680003A435B08EF0A76429041994114D03942BF
:101690003BD1B61940414941761C394204D1761CF0
:1016A000001849413942FAD0B9436746B74208D9D0
:1016B000A41B24052143A7E70042EAD13642E8D122
:1016C000A2E7E40AE10700209EE7202E0BDD203E82
:1016D0001F00F340F7415F40012A002257417E423C
:1016E000984191410BE01700F741F2405740F34118
:1016F0005A40B340F3405A407E42904199410A0318
:1017000003D2641EB619404149410027641E2405D6
:101710004208AE4178416141F0BC7047F446002870
:1017200004D4494200F013F8404260474042002987
:1017300005D45FD000F00BF840424942604749426F
:1017400000F005F84942604703460B43E6D4002207
:10175000030A8B420BD203098B4219D243088B42F6
:101760002ED2411A00D20146524110467047FF2244
:1017700009023FD012068B4205D3121209028B4296
:1017800001D31212090203098B4219D300E0090A9E
:10179000C3098B4201D3CB01C01A524183098B424A
:1017A00001D38B01C01A524143098B4201D34B0133
:1017B000C01A524103098B4201D30B01C01A524196
:1017C000C3088B4201D3CB00C01A524183088B421D
:1017D00001D38B00C01A524143088B4201D34B0006
:1017E000C01A5241884200D3401A5241CFD201461A
:1017F0001046704708B500F069F808BDF0B40E0057
:101800005E400125ED072E40B446AE0ADF184C18A5
:10181000F4423BD2F74241D2640D43D07F0D38D021
:10182000E41BC902DB0229432B43CF0ADB0A060073
:10183000B61A9F4104D2641EB6197F41B6185F41A3
:101840006812800D24180018844222DAE80C002166
:10185000B6197F41B61A9F4102D2B6185F413F1CAC
:1018600040414941F4D3241C21DD2405B6197F41B0
:10187000B61A9F4105D33743C60737430026012FC9
:101880007041614166463143F0BC7047FCD1F7427C
:1018900005D20020C14349054908F3E704D00020E0
:1018A000C143F1E77F0DFAD000206146ECE7244206
:1018B000FAD1401C61410F03F6D30020E2E780B566
:1018C000012000F005F801BD7047FEE77047FEE714
:1018D00080B500BF00BF024A11001820ABBEFBE775
:1018E0002600020038B5040001D1012032BD2500D8
:1018F00040356878002804D100202870200000F0CE
:10190000FDFB24206870206801680122914301607A
:1019100060681F4901402068016121681D488A688C
:1019200002408A60A1682268E368012B03D1C343A7
:101930000B43936003E084231B020B439360E16835
:10194000022903D1802109012268516021684A6877
:10195000114B13434B602168CA681040C86020696E
:1019600061690143A069000208432168C860E06919
:10197000216A0143206801602068016801220A434E
:10198000026000206860202169702063A87032BD69
:10199000FFFFFFF0FF7FFFFF00800002FEB50400A5
:1019A0000F0016001D0040304078202800D0D1E004
:1019B0000898002803D06846808C002801D10120B7
:1019C000FEBD4020205C012800D1C3E00120402161
:1019D000605400F0BDFB0290009019230122D10356
:1019E000200000F086FA002801D00320FEBD2B0065
:1019F0003200212021004031487040202100403138
:101A00008870002021004031486008986062684674
:101A1000808C608500206063029801900A98009095
:101A20003900200000F0D6F900280CD0200040300A
:101A30004168042903D1002101700120FEBD00216D
:101A400001700320FEBD608DFF283DD9FF20208559
:101A50000020009080235B04FF223900200000F06A
:101A6000FFFA0A9E029D2A003100200000F06BFA66
:101A7000002835D1606A411C616200782168886263
:101A80003548618D09186185218D0818208500046D
:101A90003DD1608D00283AD000953300002280218E
:101AA000200000F026FA002824D1608DFF2823D9D9
:101AB000FF2020850020009080235B04FF22390056
:101AC000200000F0CDFA22E0628D228500200090F7
:101AD00080239B04D2B23900200000F0C1FAC0E795
:101AE0000094204640304068042801D10120FEBD0A
:101AF0000320FEBD0320FEBD628D228500200090E4
:101B000080239B04D2B23900200000F0A9FA608D36
:101B10000028A8D131002A00200000F03FFA002858
:101B200008D0200040304068042801D10120FEBDCB
:101B30000320FEBD20202168C86121684A68A34BAC
:101B400013404B60210040314870002002008A7031
:101B50000870FEBD0220FEBDFFFF0000FEB50400C0
:101B60000F0016001D0040304078202800D02BE1E7
:101B70000898002803D06846808C002801D10120F5
:101B8000FEBD4020205C012800D11DE10120402144
:101B9000605400F0DDFA0290009019230122D10375
:101BA000200000F0A6F9002801D00320FEBD2B0084
:101BB00032003D00222021004031487040202100A9
:101BC00040318870002021004031486008986062F0
:101BD0006846808C608500206063029801900A98B6
:101BE00000902900200000F035F9002811D03A2D8E
:101BF00002D1322000F0B2FA2000403041680429BE
:101C000003D1002101700120FEBD002101700320DD
:101C1000FEBD28003A2802D1322000F09FFA902021
:101C20008001618DFF295DD9FF21218500908023EE
:101C30005B040A462900200000F012FA28003A2826
:101C400002D1322000F08AFA0A9F029E28003A2828
:101C500002D1322000F082FA00963B0000220421DB
:101C6000200000F046F900284DD128003A2802D182
:101C7000322000F073FA606A411C61622168496A8F
:101C800001705348218D09182185618D08186085E0
:101C900028003A2802D1322000F060FA208D002876
:101CA00040D1608D00283DD000963B00002280216D
:101CB000200000F01EF9002827D128003A2802D180
:101CC000322000F04BFA608DFF2820D9FF202085BC
:101CD0000020009080235B04FF222900200000F0F8
:101CE000BFF91FE0628D2285009080239B04D2B251
:101CF0002900200000F0B4F928003A28A4D13220AD
:101D000000F02CFAA0E70320FEBD0320FEBD628D8B
:101D100022850020009080239B04D2B2290020005D
:101D200000F09EF9608D002890D128003A2802D159
:101D3000322000F013FA32003900200000F02EF9B2
:101D4000002808D0200040304068042801D101203C
:101D5000FEBD0320FEBD28003A2802D1322000F04B
:101D6000FDF928003A2802D1322000F0F7F92026A8
:101D70002068C66128003A2802D1322000F0EEF92E
:101D800028003A2802D1322000F0E8F920684168A2
:101D90000E4A0A40426028003A2802D1322000F060
:101DA000DDF94034667000263000A07028003A2823
:101DB00002D1322000F0D2F926703A2D02D1322021
:101DC00000F0CCF93046FEBD0220FEBD00E800FE6A
:101DD000FFFF0000F8B5040016001D00079F8020DB
:101DE00080010090C3022A00D2B2200000F038F92E
:101DF0003A000699200000F0A6F8002806D0606C92
:101E0000042801D10120F2BD0320F2BD012D11D023
:101E10003000000A216888623A000699200000F02C
:101E200092F8002806D0606C042801D10120F2BD90
:101E30000320F2BDF6B2206886620097069B00225E
:101E40008021200000F055F8002801D00320F2BDC9
:101E50000020F2BDF8B5040016001D00079F802089
:101E60008001009000232A00D2B2200000F0F8F890
:101E70003A000699200000F066F8002806D0606C51
:101E8000042801D10120F2BD0320F2BD012D11D0A3
:101E90003000000A216888623A000699200000F0AC
:101EA00052F8002806D0606C042801D10120F2BD50
:101EB0000320F2BDF6B2206886620097069B0022DE
:101EC0004021200000F015F8002801D00320F2BDC9
:101ED0000020F2BD01688A69920701D500228A625A
:101EE0000068012182690A4002D18269114381613F
:101EF0007047F8B5069F04000D00684602701E008A
:101F0000206880692840A84201D1012000E000201B
:101F100069460978884214D10020C0438642EFD038
:101F2000002E04D000F014F9C01B8642E8D2200035
:101F300040302021417000210A008270017003208E
:101F4000F2BD0020F2BD70B504000D00160020683F
:101F50008069800720D432002900200000F045F875
:101F6000002801D0012070BD0020C0438542EED082
:101F7000002D04D000F0ECF8801B8542E7D2200051
:101F80004030202142680A434260417000210A002B
:101F900082700170032070BD002070BDF8B505008F
:101FA0000E00170020242868806920401BD13A00C9
:101FB0003100280000F019F8002812D1002E04D0BA
:101FC00000F0C6F8C01B8642EDD2280040304168C0
:101FD00021434160447000210A0082700170032097
:101FE000F2BD0120F2BD0020F2BDF8B51024036857
:101FF0009B6923401CD005000F0000922026286812
:102000008169314016D10020C0438742F7D0002FAC
:1020100005D000F09DF80099401A8742EFD22800C1
:102020004030467000210A00827001700320F2BD2A
:102030000020F2BDC4612868C6612800FFF74AFF8E
:10204000286841680E4A0A40426028004030042156
:102050004160467000210A00827001700120F2BDCB
:1020600070B4039C00684568064E2E408905890DB2
:10207000314312040A4313431C43446070BC70474D
:1020800000E800FE009800FC80B501202B490A689A
:1020900002430A6009680840009000980022114637
:1020A0000420C04300F0A4F8002211460120C043E0
:1020B00000F09EF8002211460020C04300F098F87E
:1020C00001BD00681E49884200D0704780B586B0C7
:1020D000480D1A490A6802430A60096808400090DE
:1020E000009802200190032002900020039001A993
:1020F0009020C00500F0A2F807B000BD00681149AB
:10210000884200D0704700B585B0C02000901220F2
:1021100001900120029003210391049069460A482E
:1021200000F08CF88020800308490A6802430A60A6
:10213000096808400090009805B000BD18100240E2
:102140000024014000540040000400481C100240DC
:1021500001480068704700BF5005002011B581B0EC
:10216000FFF7F6FF0400FFF7F3FF001B0199884219
:10217000F9D313BD0121C006C00E8140284801607B
:10218000704710B4C20018231340FF249C40E24360
:102190008901C9B2994003000BD5224B0007000FFB
:1021A000083880088000181803681A40114301603D
:1021B00007E01D489B089B00C01803681A401143A4
:1021C000016010BC704710B5401E80214904884250
:1021D00001D3012010BD154C606003210020C043D5
:1021E000FFF7CFFF0020A06007202060002010BD77
:1021F00080B5FFF7C6FF01BD80B5FFF7BBFF01BD8E
:1022000080B5FFF7E0FF02BD08490428086803D144
:10221000042202430A60704704229043086070471A
:1022200000E100E01CED00E000E400E010E000E070
:1022300080B500F001F801BD7047FEE7FFB40A0069
:102240000023010031E0052403E06A4CA142FAD1E9
:102250000400AC4034430098046067480568019E60
:10226000F44325405668F60302D52E00019D354300
:102270000560456825405668B60302D52E00019DCD
:1022800035434560856825405668F60202D52E0024
:10229000019D35438560C5682C405568AD0202D567
:1022A0002500019C2C43C4605B1C10680400DC40CA
:1022B00000D17FE0012425009D4003950540019554
:1022C00001980028F0D05068022801D0122811D1BE
:1022D000D80880000D18286A1E00B7001C263E4052
:1022E0000F27B740B8431769BC4637006646BE4063
:1022F00006432E620D68180040006E4630700320C1
:1023000037780600BE40F74302973E462E40556898
:1023100005406F463F78BD4035430D605568012D3F
:1023200005D0022D03D0112D01D0122D11D18E68B0
:10233000029D3540D6686F463F78BE402E438E6082
:102340004D68039EB5435668360926409E402E438D
:102350004E60CE68029D354096686F463F78BE401D
:102360002E43CE605568ED009ED5244D2E68264341
:102370002E602D6825400095009D214D9E08B600D9
:10238000AD1900952E681D00AF000C253D400F27AC
:10239000AF40BE439027FF05B94201D1002458E762
:1023A000184FB94200D154E7174CA14200D04CE776
:1023B00002244EE7FFBC704700690840401E804180
:1023C000C043C00F7047002A01D08161704781620D
:1023D000704742694A404261704701000B4A1368E6
:1023E0000B4000D1704780B5116000F0DFF901BDEE
:1023F00000000000000C00480004014018100240DA
:10240000080001400004004800080048140401408E
:1024100080B500F005FA00F00BF800F09EF800F02F
:1024200075F800F048F800F01BFA00F015F9FEE727
:1024300030B595B01220099001200C900E9010201C
:102440000D900F900224119400251295A020800376
:102450001390149509A800F025FB002801D000F086
:10246000DBF907200090019402950395012168464D
:1024700000F012FD002801D000F0CEF920200490D9
:10248000079504A800F0E8FD002801D000F0C4F989
:1024900000F0B7FDFA218900FFF759F9FFF7B0FE08
:1024A0000420FFF7B1FE2A4611460020C043FFF783
:1024B0009FFE15B030BD3EB5BB4CC6482060002025
:1024C0006060A060E060012525610C216161A06170
:1024D000E06120626062FF21C231A162E06220639C
:1024E0006563200000F03EFE002801D000F094F962
:1024F000009528030190000402906946200000F036
:10250000FBFE002801D000F087F937BD10B5B24CB2
:10251000B2486060B248A0600020E0600121216103
:102520006061A061E06120626062201DFFF7DAF95E
:10253000002801D000F070F90021201D00F076FF86
:10254000002801D000F068F90021201D00F099FF5B
:10255000002801D000F060F910BDF8B586B08021E8
:102560000903A04802680A4302600268114005910D
:1025700005998021C90302680A430260026811407C
:10258000059105998021890202680A430260026868
:102590001140059105998021C90202680A43026031
:1025A00002681140059105998021490302680A4398
:1025B00002600068014005910598C027BF00002215
:1025C00039008948FFF7FFFE8848009003240194F2
:1025D0000025029569468448FFF730FEF3200090FD
:1025E0000194029569468248FFF728FE012600966D
:1025F00080480190029569469020C005FFF71EFEB5
:102600007D4800900194029569469020C005FFF72F
:1026100015FE7A4800900194029569467848FFF7C4
:102620000DFE009701960295039569466E48FFF7E7
:1026300005FE042000900194029569467148FFF759
:10264000FDFD2A4611460520FFF7D2FD0520FFF7C4
:10265000D3FD07B0F0BD00007FB50026300069460D
:1026600008703500FA208000FFF778FD6648019079
:1026700066480290584C201D039030006070611C29
:1026800001A800F0ACFF6078432800D0FEE70121EC
:1026900001A800F0ABFFA11C01A800F0C0FFA078CA
:1026A0000028F8D1012101A800F024FF022101A88F
:1026B00000F039FF012101A800F0E3FF082101A883
:1026C00000F04AFF00A9891C01A800F066FF00A9DC
:1026D000491C01A800F075FF68464078C0072AD55C
:1026E00068464078FE21014068464170324602212A
:1026F0002000503000F0DEFF2100503101A800F032
:1027000067FF5020225E00BF44A12000543000F03B
:10271000EFFF3146084600F0BBF901233C4803C8EF
:102720000A0001002000543000F09DF900F0FCF890
:102730003220FFF713FD20780028C8D03000207029
:10274000012101A800F07AFF694601A800F08DFF81
:10275000684600780128BAD028006D1CC0B2022853
:10276000EEDDB4E71FB52B4CA04209D1FA24A4003A
:1027700002940193009201230A003A21FFF70EF917
:10278000002004B010BD1FB5224CA04209D1FA248C
:10279000A40002940193009201230A003A21FFF75A
:1027A000DDF9002004B010BDFC04002080B5012834
:1027B0000ED101219020C005FFF7FEFD002808D1B1
:1027C00001200549087001020748FFF702FE01BD1C
:1027D00000BF01BD002401408C04002000540040D3
:1027E0000B0200001410024000080048FFFC00002B
:1027F0000014004800002110FC9F00003FFF000073
:1028000000040048000C00486527000887270008DE
:102810000000002090040020FEE700002564000076
:1028200080B50648016810220A430260002000F0CB
:102830007FFFFFF729FC002002BD000000200240BE
:1028400001B584B00A2002900120019004A80090F4
:102850000123002278219048FFF7A0F805B000BDC1
:1028600080B56420FFF77AFCAE20FFF7E9FF202057
:10287000FFF7E6FF0020FFF7E3FF8120FFF7E0FF0F
:10288000F020FFF7DDFFA620FFF7DAFFA820FFF713
:10289000D7FF3F20FFF7D4FFA420FFF7D1FFD320BD
:1028A000FFF7CEFF0020FFF7CBFFD520FFF7C8FFD3
:1028B0008020FFF7C5FFD920FFF7C2FF2220FFF7D6
:1028C000BFFFDA20FFF7BCFF0220FFF7B9FFDB20D4
:1028D000FFF7B6FF4020FFF7B3FF8D20FFF7B0FFF3
:1028E0001420FFF7ADFFAF20FFF7AAFF002000F094
:1028F00009F800F019F869480021016001214171CF
:10290000084602BD10B400210A00654C8023DB009C
:102910009A4207D2030001D0FF2300E00B00A3542A
:10292000521CF3E710BC70471FB5002419E02000CB
:102930005038C0B2FFF784FF0020FFF781FF10205E
:10294000FFF77EFF64200290802001905448E1014F
:10295000401800900123402278214F48FFF71EF8CD
:10296000641C082CE3DB1FBD0300802B00DB7047D9
:1029700010B40C00402C17DA48480079002802D027
:10298000521E9241D20F4648E410E4011B19C018B0
:10299000037801244907490F8C40012A02D11C43C6
:1029A000047001E0A343037010BC7047F6B583B018
:1029B0001D003A4909886A46518069464988127B58
:1029C000891880290CDA354949886A46918003A91B
:1029D0004978029169468988029A8918402901DB61
:1029E000002014E000276946087013E02A00D2B2E4
:1029F000C9B2C0B2FFF7B8FF641C19E0684640884E
:102A00006946097B4018254908806846007805B06A
:102A1000F0BD7F1C03A840788742EFD20498694636
:102A200009782039029A5143C9194900465A0024AD
:102A30006846007B8442ECD26846808839004118A1
:102A400068464088220080183200A2401204CDD48B
:102A50002B001A00D2B2521E9241D20FC9B2C0B29C
:102A6000FFF782FFC8E7F8B50E00170004001D004D
:102A7000207800280AD02B00DBB231003A00FFF7A3
:102A800095FF2178884201D1641CF1E72078F2BDDE
:102A9000024A1080518070479004002048050020B1
:102AA0008C000020FEB50400BF4D2078C00700D484
:102AB00018E10C2069680140042906D069680840C3
:102AC00008280CD16868C00309D52868800300D4A1
:102AD00008E16068002800D004E10120FEBD6068C4
:102AE000012805D1286880214902014329601EE0A0
:102AF000002808D12868AD49014029602868AC4900
:102B00000140296013E00528286809D18021C90205
:102B1000014329602868802149020143296006E0B9
:102B2000A249014029602868A14901402960802705
:102B3000BF02606800280DD0FFF70AFB0600286876
:102B4000384000D0CEE0FFF703FB801B6528F6D3AA
:102B50000320FEBDFFF7FCFA06002868384000D1CC
:102B6000C0E0FFF7F5FA801B6528F6D3F0E7FFF722
:102B7000EFFA801B022800D8E4E0E9E7E0680028CB
:102B8000286810D0012101432960FFF7E1FA06000F
:102B900028680199014000D00CE1FFF7D9FA801BA9
:102BA0000228F5D9D4E7012188432860FFF7D0FA3D
:102BB000060028680199014000D1B5E0FFF7C8FA86
:102BC000801B0228F5D9C3E7012188436862FFF71B
:102BD000BFFA0600686A0199014000D1B7E0FFF72B
:102BE000B7FA801B0228F5D9B2E7002808D1286A75
:102BF000012188432862286A39468843286210E008
:102C00000528286A06D138432862286A0121014331
:102C1000296206E0012188432862286A39468843F0
:102C20002862A06800280ED0FFF792FA0600286AF2
:102C30000199014000D0CEE0FFF78AFA801B954948
:102C40008842F4D384E7FFF783FA0600286A0199E3
:102C5000014000D1BFE0FFF77BFA801B8D4988421D
:102C6000F4D375E7FFF774FA801B022800D8CBE095
:102C70006EE7FFF76DFA801B022800D8E5E067E7F2
:102C80000421C9438842686B09D101406963686BBC
:102C9000F8218843A169C90001436963C0E0074383
:102CA0006F63686B012188436863FFF751FA060080
:102CB000686B0199014000D1B2E0FFF749FA801B2F
:102CC0000228F5D944E701402960FFF741FA0400E2
:102CD0002868384000D1DAE0FFF73AFA001B0228F2
:102CE000F6D935E7022001902068022101401BD06F
:102CF0000C206968014008D069680840082800D0A5
:102D00003CE76868C00300D538E728680221014025
:102D100003D0E068012800D0DFE62868F821884366
:102D20002169C90001432960207800070FD5E069B7
:102D30000028686A00D147E7012101436962FFF773
:102D400007FA0600686A0199014000D10FE70427DD
:102D50002068384047D0002069460870B806E96905
:102D6000014009D1E9690143E961E969084000903E
:102D7000009801206946087092480068C00521D477
:102D800090480068A90D01438E480160FFF7E0F903
:102D900006008C480068C00514D4FFF7D9F9801BE1
:102DA0006528F6D3D4E600BF00100240FFFFFEFF07
:102DB000FFFFFBFF2868F82188432169C900014310
:102DC0002960B1E7A068012800D00EE7286A012138
:102DD0000143296225E768460078012803D1E869A4
:102DE00089490140E9612078C00619D56069012848
:102DF00000D045E7686B07436F63686B01210143AF
:102E00006963FFF7A5F90600686B0199014000D1DD
:102E100028E7686BF8218843A169C9000143696309
:102E2000206A002833D069680C220A40082A00D1A1
:102E300053E68027BF0475490228286800D042E77E
:102E400001402960FFF784F906002868384000D067
:102E50000FE7E86A0F218843E16A0143E962686885
:102E60006B490140A06A0843616A014369602868B0
:102E7000790801432960FFF76BF90400286838409E
:102E800005D1FFF765F9001B0228F7D960E600209D
:102E9000FEBD000089130000F3B581B001245D4F31
:102EA00039682140029A91420AD2396822469143F8
:102EB000029A0A433A6039682140029A914274D1D9
:102EC0000090554D022000990968014006D06968BC
:102ED000F0229143009A92680A436A600099096857
:102EE000214052D000994968012903D12868800304
:102EF00009D45AE0022903D12868800103D454E0A0
:102F00002A68104051D068680322904301436960E9
:102F1000FFF71EF906000098406801280CD1686888
:102F20000C210140042930D0FFF712F9801B3B49E6
:102F30008842F4D30320FEBD022838D168680C21F2
:102F40000140082921D0FFF703F9801B334988424B
:102F5000F4D3EFE700980078400706D56868304959
:102F600001400098C0680843686000F02DF82D49C2
:102F70006A6812091207120F895CC8402A49086062
:102F8000002000F0D5FB0020FEBD029839682140EA
:102F90008842DFD23868214688430299014339606C
:102FA0003868044002988442D4D00120FEBD68688D
:102FB0000C210140E9D0FFF7CBF8801B174988426C
:102FC000F5D3B7E70070004010B5184908680C2227
:102FD0000240082A13D10F2217A3840C14401C5D51
:102FE00019A3896A0A40995CC00304D51048FEF70A
:102FF000AEFB604310BD0F484443200010BD0C4899
:1030000010BD094800687047FFFFFFEFFFFFFFFE9C
:10301000FFFFC2FF002002400010024089130000A1
:10302000FFF8FFFF203F00080800002004100240C6
:1030300000127A0000093D00020304050607080992
:103040000A0B0C0D0E0F10100102030405060708F1
:10305000090A0B0C0D0E0F10F8B504003B4D20684B
:10306000C00356D50027802040052968014007D1BC
:1030700029680143296029680840009000980127C9
:1030800033480068C0051AD431480068A90D0143CF
:103090002F480160FFF75CF806002D480068C00566
:1030A0000DD4FFF755F8801B6528F6D30320F2BD39
:1030B000FFF74EF8801B274988421BD3F6E7C02054
:1030C00080006968014018D062681040814214D0C5
:1030D0006968214808406968802252020A436A6090
:1030E00069681E4A0A406A606860C00705D5FFF734
:1030F0002FF8060068688007DAD56868164901402D
:10310000606808436860012F03D1286814490140B2
:1031100029602078C00705D5686903218843A16824
:10312000014369612078800605D5686910218843CC
:10313000E168014369612068400505D5686940215F
:1031400088432169014369610020F2BD1C100240DF
:103150000070004089130000FFFCFFFFFFFFFEFF2F
:10316000FFFFFFEFF8B504000025002C01D101207E
:10317000F2BD260040367068002805D12846B060B0
:1031800030702000FEF79DFF10217068084000D0CD
:10319000A6E0042022689268024000D0A0E0726895
:1031A000524B134002221A437260226893689B07B5
:1031B0009B0F012B0CD11368DB0707D4D36847039F
:1031C0003B405B1E9B41DB43DB0F02E0012300E041
:1031D0002B46002B0CD1D3681827BB43A7681F438D
:1031E000D760226813699B009B0867681F431761BB
:1031F0002268D3683E4F1F40D760626B012A01D01E
:10320000830200E02B462269022A01D1009001E0EE
:1032100028460090226AA0698003E769FF030743FC
:10322000500338430343E0681843009B0343206B7B
:1032300040001843636A012B0DD1002A03D102001C
:103240000803104307E07268202313437360B268D9
:1032500001231343B360A26AFF23C2339A4203D00F
:103260000300E06A104318432268D3680343D36025
:10327000A26B0B069A420DD0012A0BD0022A09D06C
:10328000032A07D0042A05D0052A03D0062A01D034
:10329000072A0CD1226853690727BB435361226870
:1032A00053693827E75D7F077F0F1F43576102226D
:1032B000D24301232468E4680E4F2740874206D199
:1032C0002846B06070680240134373600CE0706879
:1032D000024011437160B0681843B0601D0003E004
:1032E00070680143716001252800F2BDFFFEFFFFF9
:1032F0001902FEFFE7FF3F83F8B5040000252E000A
:1033000000954020205C012801D10220F2BD01205F
:1033100002004023E254226893685B0770D40B6874
:1033200098404B683D4FBB42936A4FD01843906220
:10333000A06B8022520590421ED001281CD002288A
:103340001AD0032818D0042816D0052814D006282F
:1033500012D0072810D0226807208B6857690740D1
:10336000BB4209D053690746BB4353612268536986
:103370008F683840184350610868102803D011281E
:1033800001D0122845D1102802D18020000406E087
:10339000112802D18020C00301E080204004204A8F
:1033A0001368184310600868102832D11D4800685F
:1033B0001D49FEF7CCF981000818400000900098E4
:1033C000002826D00098401E0090F8E783439362BF
:1033D0000868102803D0112801D0122819D110280C
:1033E00002D18021090406E0112802D18021C903FD
:1033F00001E0802149040A4802688A43026008E02B
:1034000021004031496820220A43210040314A60AE
:103410000600402025543000F2BD000001100000DD
:10342000082701400800002040420F0070B402004D
:1034300040325378202B21D14023C35C012B01D192
:1034400002201CE001231C00147024245470046822
:1034500025681E46B5432560046825681D4E2E402C
:1034600026600468256829432160006801680B43D1
:103470000360202050700020107000E0022070BC1B
:10348000704770B4020040325378202B1FD1402384
:10349000C35C012B01D102201AE001231C0014702F
:1034A00024245470046825681E46B54325600468CA
:1034B0002568094E2E4009023143216000680168E9
:1034C0000B430360202050700020107000E00220A9
:1034D00070BC7047FFEFFFFFFFF0FFFF10B5040067
:1034E000A0686468A04710BD10B50400A0682468F7
:1034F000A04710BD38B505000C0001236A46202105
:10350000FFF7ECFF68460078FE2101402000C0076D
:10351000C00F08436946087001236A46202128002D
:10352000FFF7E2FF32BD38B505000C0001236A4603
:103530002021FFF7D3FF68460078F3210140A00067
:103540000C2202400A436846027001236A46202189
:103550002800FFF7C9FF32BD38B505000C00012374
:103560006A462021FFF7BAFF684600780007000F7F
:1035700021010143684601700078FD2101402000CF
:10358000C0080222104008436946087001236A46B9
:1035900020212800FFF7A8FF32BD1CB50C00012335
:1035A0006A462021FFF79AFF6946097849080A0010
:1035B000D207D20F11016A461278120989182170B8
:1035C00016BD80B50A0001232721FFF787FF02BD42
:1035D00080B50A0002233B21FFF780FF02BD80B5C2
:1035E0000A0001230F21FFF779FF02BD38B505005E
:1035F0000C0001236A462121FFF770FF684600781E
:10360000BF210140A00140221040084369460870D4
:1036100001236A4621212800FFF766FF32BD1CB551
:103620000C0001236A462121FFF758FF69460978FB
:1036300089090A00D207D20F227016BD38B50500DD
:103640000C0001236A463A21FFF748FF68460078DC
:103650004006400EE10101436846017001236A46BD
:103660003A212800FFF740FF32BD1CB50C000123B2
:103670006A463A21FFF732FF69460978C909217085
:1036800016BD38B505000C0001236A463F21FFF73F
:1036900025FF68460078FE2101402000C007C00FCA
:1036A00008436946087001236A463F212800FFF756
:1036B0001BFF32BD1206130A1A43130C1A4300BF34
:1036C0001300103906D330B41400150010393CC073
:1036D000FCD230BC490700D30CC000D504C089001F
:1036E00002D30280801C002900D502707047FEE7DB
:1036F0000CB418B583B004000A0006A80290019427
:103700000020009002AB01A9084878441E30FCF765
:10371000D5FC0021019A1170002801D40198001BEA
:1037200004B0019910BC03B0084700BF9FDAFFFF47
:1037300010B50400FFF765FCFA218900FEF707F8D1
:10374000FEF75EFD002221000020C043FEF750FD81
:10375000002010BD0000000000000000000000007C
:103760000000000000000000001000100010001019
:1037700000100010000000100000000000280028C9
:103780000028000000000000000000000000000011
:1037900000240024007C00240048007C00480048ED
:1037A000000000000038005400500038001400549D
:1037B0000054003800100000002000540058003071
:1037C0000028005400140008000000000010002829
:1037D00000280010003400480048003400000000B9
:1037E00000100010001000000000000000000000A9
:1037F0000000000000080010002000200020002031
:103800000020002000100008002000100008000820
:103810000008000800080008001000200010003810
:103820000010002800000000000000000000000060
:103830000000000000100010007C001000100000CC
:103840000000000000000000000000000000000078
:103850000000001000100010000000000000000038
:103860000000003800000000000000000000000020
:103870000000000000000000000000100000000038
:1038800000080008001000100010001000200020A8
:10389000000000000038004400440054004400448C
:1038A00000440038000000000010003000500010FC
:1038B000001000100010001000000000003800444C
:1038C00000440004000800100020007C00000000FC
:1038D00000380044000400180004000400440038CC
:1038E0000000000000080018002800280048007CA4
:1038F0000008000800000000007C00400040007844
:1039000000040004004400380000000000380044B7
:1039100000400078004400440044003800000000EB
:10392000007C00040008001000100020002000208F
:103930000000000000380044004400380044004407
:1039400000440038000000000038004400440044F7
:10395000003C0004004400380000000000000000AB
:103960000010000000000000000000100000000037
:103970000000000000000010000000000000001027
:103980000010001000000000000C0030004000306B
:10399000000C000000000000000000000000007C9F
:1039A0000000007C0000000000000000000000009B
:1039B0000060001800040018006000000000000013
:1039C000003800440004000800100010000000103F
:1039D0000000000000380044004C0054005C00402F
:1039E00000400038000000000010002800280028D7
:1039F0000028007C004400440000000000780044DF
:103A000000440078004400440044007800000000B6
:103A100000380044004000400040004000440038AE
:103A200000000000007000480044004400440044CE
:103A30000048007000000000007C00400040007C56
:103A4000004000400040007C00000000007C00407E
:103A500000400078004000400040004000000000AE
:103A60000038004400400040005C0044004400383E
:103A700000000000004400440044007C0044004476
:103A80000044004400000000003800100010001046
:103A900000100010001000380000000000040004B6
:103AA000000400040004000400440038000000008A
:103AB00000440048005000600050004800480044A6
:103AC0000000000000400040004000400040004076
:103AD0000040007C000000000044006C006C0054BA
:103AE000004400440044004400000000004400641E
:103AF000006400540054004C004C004400000000DE
:103B000000380044004400440044004400440038AD
:103B100000000000007800440044004400780040A9
:103B20000040004000000000003800440044004411
:103B300000440044005400380004000000780044B1
:103B400000440044007800480048004400000000A1
:103B500000380044004000300008000400440038F1
:103B600000000000007C0010001000100010001089
:103B70000010001000000000004400440044004415
:103B800000440044004400380000000000440044A9
:103B90000044002800280028001000100000000049
:103BA00000440044005400540054006C00280028D5
:103BB0000000000000440028002800100010002829
:103BC00000280044000000000044004400280028B1
:103BD000001000100010001000000000007C000425
:103BE00000080010001000200040007C00000000D1
:103BF000001800100010001000100010001000103D
:103C0000001000180020002000100010001000100C
:103C10000008000800000000003000100010001034
:103C200000100010001000100010003000100028DC
:103C30000028004400000000000000000000000018
:103C40000000000000000000000000000000000074
:103C5000000000FE00200010000000000000000036
:103C600000000000000000000000000000380044D8
:103C7000003C0044004C00340000000000400040C4
:103C80000058006400440044006400580000000034
:103C900000000000003800440040004000440038AC
:103CA00000000000000400040034004C0044004404
:103CB000004C003400000000000000000038004408
:103CC000007C00400044003800000000000C0010A0
:103CD000007C001000100010001000100000000018
:103CE000000000000034004C00440044004C00344C
:103CF0000004007800400040005800640044004484
:103D0000004400440000000000100000007000109B
:103D10000010001000100010000000000010000053
:103D2000007000100010001000100010001000E0E3
:103D3000004000400048005000600050004800442F
:103D400000000000007000100010001000100010B3
:103D50000010001000000000000000000078005477
:103D60000054005400540054000000000000000003
:103D70000058006400440044004400440000000077
:103D800000000000003800440044004400440038B3
:103D900000000000000000000058006400440044DF
:103DA0000064005800400040000000000034004C57
:103DB00000440044004C00340004000400000000F3
:103DC0000058006400400040004000400000000037
:103DD00000000000003800440030000800440038B3
:103DE00000000000002000200078002000200020BB
:103DF0000020001800000000000000000044004403
:103E000000440044004C00340000000000000000AA
:103E10000044004400280028002800100000000092
:103E200000000000005400540054006C00280028DA
:103E300000000000000000000044002800100010F6
:103E4000002800440000000000000000004400447E
:103E50000028002800100010001000600000000082
:103E6000007C0008001000200040007C00000000E2
:103E7000001800100010001000200020001000109A
:103E800000100018001000100010001000100010AA
:103E90000010001000100010003000100010001082
:103EA00000080008001000100010003000000000A2
:103EB00000000074004C0000000000000000000042
:103EC0001148016801220A43026041680F4A0A4012
:103ED000426001680E4A0A40026001680D4A0A40C9
:103EE000026041680C4A0A404260C16A0F22914355
:103EF000C162016B094A0A400263416B012291438E
:103F00004163002181607047001002400CB8FFF847
:103F1000FFFFF6FEFFFFFBFFFFFFC0FFACFEFFFF52
:103F20000000000000000000010203040607080969
:103F300070B40123002413E00168001D194202D06F
:103F40004D466D1E49190C60091D121F042AFAD234
:103F50000D00960701D50C80AD1C1A4000D02C70C6
:103F60000268001D002AE7D170BC704710B50749F0
:103F700079441831064C7C44163404E0081D0A6864
:103F8000891888470100A142F8D110BD080000003F
:103F9000240000009DFFFFFFCC0400008C000020E7
:103FA000000000000BD1FFFFE800000074000000DB
:103FB0000000002000F00DF8002801D0FFF7D6FF28
:103FC00000BF00BF002000BF00BFFEF721FA00F0D5
:103FD00002F80120704780B500F002F801BDFEE74D
:103FE00007463846FDF774FCFBE7FF2902D900209D
:103FF000C04370470170012070470078401E804127
:10400000C043C00F704780B500F008F8FEF710F904
:1040100001BD80B50120FEF7E0F901BD024801684D
:10402000491C0160704700BF500500206E616E00A2
:104030004E414E00696E6600494E46000148804779
:1040400001480047C13E00084D40000800BF00BFC6
:1040500000BF00BFFFF7AEFF00002E004300FEE7E9
:10406000FEE7FEE7FEE7FEE7FEE7FEE7FEE7FEE728
:10407000FEE7FEE7FEE7FEE7FEE7FEE7FEE7FEE718
:10408000FEE7FEE7FEE7FEE7FEE7FEE7FEE7FEE708
:10409000F00E07070A00005437000800127A005893
:1040A0004000080452FF01F2005A14100100005CA5
:1040B0000CF00716010000000C000020000113FBAB
:0A40C0003F74110143EB3F3C210166
:040000050800404D62
:00000001FF
